:0300000002032DCB
:0C032D00787FE4F6D8FD7581450203746A
:1004C2006572726F7220636F6D6D616E64003F06BC
:0904D2005B4F666D7D077F6F0032
:1004A400011E14011D1E01141401121E011100016C
:0D04B4001000011300C103C102C101C1000D
:1003B900758911758D3C758BB0758C3C758AB075D6
:1003C9009850E4F587D2ACD2AFD2A9D2ABD28CC2C5
:1003D9008ED2A8D2AA1203F275A0C3E51E2405F590
:0903E9001D1201F512013F80F81C
:0C050B00C28CE4F5A0D28EF51EF51D2276
:1004DB00C28CE4F5A0D2A3D2A6C28EF51EF51D22C6
:10042900D28CE4F51385121D85141EC28E20030D8E
:10043900F5A0D2A1D2A6E51E2405F51D22E4F5A05A
:0B044900D2A4D2A3E51D2405F51E225D
:1004EB00C28CC28EE4F5A0D2A1D2A6F51EF51D22B8
:1004FB00C28CC28EE4F5A0D2A4D2A3F51DF51E22A8
:1001F50020950F12013F20950912050B12013F3082
:1002050095FA20940F12013F2094091204DB120184
:100215003F3094FA20B40F12013F20B4091204298B
:1002250012013F30B4FA20960F12013F20960912B1
:1002350004EB12013F3096FA20970F12013F2097E9
:10024500091204EB12013F3097FA20B51712013F4E
:1002550020B51120020405118002C2B330B5FD128C
:10026500013FD2B320B61712013F20B61130020468
:1002750005108002C2B330B6FD12013FD2B320B7DC
:100285001812013F20B7120513E513C39403400369
:0A02950075130230B7FD12013F227D
:10013F00E5137022E51D75F00A84F516E51D75F0BF
:10014F000A8485F017E51E75F00A84F518E51E750B
:10015F00F00A8485F015E513B40122E51275F00A53
:10016F0084F516E51275F00A8485F017E51475F01D
:10017F000A84F518E51475F00A8485F015E513B4B3
:10018F000222E51075F00A84F516E51075F00A8461
:10019F0085F017E51175F00A84F518E51175F00A69
:1001AF008485F0157590FFE4F5807590FEE51612C5
:1001BF0004547590FFE4F5807590FDE51712045413
:1001CF007590FFE4F5807590FBE518120454759057
:1001DF00FFE4F5807590F7E5159004D093F5807FD7
:0601EF00017E0002045E27
:03000B00020026CA
:10002600C0E0C0D075D008758C3C758AB0D28C05FE
:1000360019E519640A7026E51DD39405500C2002B3
:1000460009300106C2A1C2A2C2B3E51ED39405506F
:100056000C300209300106C2A4C2A5C2B3E5196478
:1000660014600302013AF519151E151DE51DD394FA
:1000760005500C200209300106C2A1D2A2D2B3E576
:100086001ED39405500C300209300106C2A4D2A535
:10009600D2B3E51E700AE51DB40505751E05D2012D
:1000A600E51D700AE51EB40505751D05D201200281
:1000B60041E51D703DD2B3F5A0D2A4D2A3B202C2CF
:1000C60001E512C313FFE510D39F40067405251200
:1000D600F512E510700674FB2512F512E512D3949D
:1000E6000F500375120F85121DE5122405F51E75B6
:1000F600100030023FE51E703BF5A0D2A1D2A6B299
:1001060002C201E514C313FFE511D39F400674052F
:100116002514F514E511700674FB2514F514E51481
:10012600D3940F500375140F85141EE5142405F59A
:090136001D751100D0D0D0E0329B
:03001B0002047E5E
:10047E00C0E0C0D0758D3C758BB0051AE51AB40A74
:10048E0004C2A5C2A2E51AB41407751A00D2A5D2E9
:06049E00A2D0D0D0E03234
:03000300020006F2
:0100060032C7
:03001300020007E1
:0100070032C6
:0300230002029F37
:10029F00C0E0C0F0C083C082C0D075D000C000C025
:0D02AF0001C002C003C004C005C006C007A6
:1002BC00C2AF30983DC298859921E521B431051221
:1002CC00050B8026E521B432051204DB801CE521E8
:1002DC00B433051204298012E521B434051204EB61
:1002EC008008E521B435081204FB12013F80037528
:1002FC0022C2E4FF74222FF8E6F5993099FDC299D9
:06030C000FBF24F0D2AF88
:10031200D007D006D005D004D003D002D001D0003F
:0B032200D0D0D082D083D0F0D0E032E9
:1003F200E4F51BF51C7580407590FE12045A759049
:10040200FD12045A7590FB12045A7590F712045AA1
:100412007590FF051CE51C7002051BC39432E51B99
:070422006480948040CF22AA
:0A0454009004D093F5807F017E0034
:10045E00E4FDFCC3ED9FEC9E5015E4FBFA0BBB00D4
:0F046E00010AEB647C4A70F50DBD00010C80E4BF
:01047D00225C
:100339000203B9E493A3F8E493A34003F68001F21E
:1003490008DFF48029E493A3F85407240CC8C333C5
:10035900C4540F4420C8834004F456800146F6DF94
:10036900E4800B01020408102040809004A4E47E7C
:10037900019360BCA3FF543F30E509541FFEE49389
:10038900A360010ECF54C025E060A840B8E493A350
:10039900FAE493A3F8E493A3C8C582C8CAC583CA7B
:1003A900F0A3C8C582C8CAC583CADFE9DEE780BE33
:0104C100003A
:00000001FF
