:0300000002038A6E
:0C038A00787FE4F6D8FD7581290203D1CC
:0B056F003F065B4F666D7D077F6F004D
:10051500011E14011D1E01141401121E01110001FA
:0D0525001000011300C103C102C101C1009B
:10041600758911758D3C758BB0758C3C758AB07578
:10042600C90175C83075CDFF75CCDC75CBFF75CAB3
:10043600DC759850E4F587D2CAD2ACD2AFD2A9D235
:10044600ABD28CC28ED2A8D2AA12046375A0C3E521
:0D0456001E2405F51D1202E012022A80F896
:0C056300C28CE4F5A0D28EF51EF51D221E
:10053300C28CE4F5A0D2A3D2A6C28EF51EF51D226D
:10049A00D28CE4F51385121D85141EC28E20030D1D
:1004AA00F5A0D2A1D2A6E51E2405F51D22E4F5A0E9
:0B04BA00D2A4D2A3E51D2405F51E22EC
:10054300C28CC28EE4F5A0D2A1D2A6F51EF51D225F
:10055300C28CC28EE4F5A0D2A4D2A3F51DF51E224F
:1002E00020950F12022A20950912056312022A3066
:1002F00095FA20940F12022A209409120533120253
:100300002A3094FA20B40F12022A20B40912049A57
:1003100012022A30B4FA20960F12022A20960912ED
:10032000054312022A3096FA20970F12022A2097CC
:100330000912055312022A3097FA20B51712022A21
:1003400020B51120020405118002C2B330B5FD12A0
:10035000022AD2B320B61712022A20B611300204A4
:1003600005108002C2B330B6FD12022AD2B320B704
:100370001812022A20B7120513E513C39403400391
:0A03800075130230B7FD12022A22A5
:10022A00E5137022E51D75F00A84F516E51D75F0D3
:10023A000A8485F017E51E75F00A84F518E51E751F
:10024A00F00A8485F015E513B40122E51275F00A67
:10025A0084F516E51275F00A8485F017E51475F031
:10026A000A84F518E51475F00A8485F015E513B4C7
:10027A000222E51075F00A84F516E51075F00A8475
:10028A0085F017E51175F00A84F518E51175F00A7D
:10029A008485F0157590FFE4F5807590FEE51612D9
:1002AA0004C57590FFE4F5807590FDE5171204C545
:1002BA007590FFE4F5807590FBE5181204C57590FA
:1002CA00FFE4F5807590F7E51590056F93F5807F4B
:0602DA00017E000204CFCA
:03000B00020026CA
:10002600C0E0C0D075D008758C3C758AB0D28C05FE
:1000360019E519640A7026E51DD39405500C2002B3
:1000460009300106C2A1C2A2C2B3E51ED39405506F
:100056000C300209300106C2A4C2A5C2B3E5196478
:1000660014600302013AF519151E151DE51DD394FA
:1000760005500C200209300106C2A1D2A2D2B3E576
:100086001ED39405500C300209300106C2A4D2A535
:10009600D2B3E51E700AE51DB40505751E05D2012D
:1000A600E51D700AE51EB40505751D05D201200281
:1000B60041E51D703DD2B3F5A0D2A4D2A3B202C2CF
:1000C60001E512C313FFE510D39F40067405251200
:1000D600F512E510700674FB2512F512E512D3949D
:1000E6000F500375120F85121DE5122405F51E75B6
:1000F600100030023FE51E703BF5A0D2A1D2A6B299
:1001060002C201E514C313FFE511D39F400674052F
:100116002514F514E511700674FB2514F514E51481
:10012600D3940F500375140F85141EE5142405F59A
:090136001D751100D0D0D0E0329B
:03001B000204EFED
:1004EF00C0E0C0D0758D3C758BB0051AE51AB40A03
:1004FF0004C2A5C2A2E51AB41407751A00D2A5D278
:06050F00A2D0D0D0E032C2
:03000300020006F2
:0100060032C7
:03001300020007E1
:0100070032C6
:0300230002013F98
:10013F00C0E0C0F0C083C082C0D075D000C000C086
:0D014F0001C002C003C004C005C006C00707
:10015C00C2AF2098030201FBC298859921E521B416
:10016C00311412056312022A75226F75236B7524E4
:10017C002D7525318062E521B4321412053312023B
:10018C002A75226F75236B75242D7525328049E5F0
:10019C0021B4331412049A12022A75226F75236B40
:1001AC0075242D7525338030E521B43414120543A4
:1001BC0012022A75226F75236B75242D75253480D8
:1001CC0017E521B4351712055312022A75226F75E3
:1001DC00236B75242D7525357526008012752265C7
:1001EC00752372752472752530752672752700E497
:1001FC00FF74222FF8E6F5993099FDC2990FBF08CC
:03020C00F0D2AF7E
:10020F00D007D006D005D004D003D002D001D00043
:0B021F00D0D0D082D083D0F0D0E032ED
:10046300E4F51BF51C7580407590FE1204CB759066
:10047300FD1204CB7590FB1204CB7590F71204CBDD
:100483007590FF051CE51C7002051BC39432E51B28
:070493006480948040CF2239
:0A04C50090056F93F5807F017E0023
:1004CF00E4FDFCC3ED9FEC9E5015E4FBFA0BBB0063
:0F04DF00010AEB647C4A70F50DBD00010C80E44E
:0104EE0022EB
:10039600020416E493A3F8E493A34003F68001F263
:1003A60008DFF48029E493A3F85407240CC8C33368
:1003B600C4540F4420C8834004F456800146F6DF37
:1003C600E4800B0102040810204080900515E47EAD
:1003D600019360BCA3FF543F30E509541FFEE4932C
:1003E600A360010ECF54C025E060A840B8E493A3F3
:1003F600FAE493A3F8E493A3C8C582C8CAC583CA1E
:10040600F0A3C8C582C8CAC583CADFE9DEE780BED5
:0105320000C8
:00000001FF
