:0300000002037A7E
:0C037A00787FE4F6D8FD7581390203C1DC
:1004DF006F6B2D31006F6B2D32006F6B2D33006FF3
:1004EF006B2D34006F6B2D35006572726F72003F8C
:0A04FF00065B4F666D7D077F6F00FE
:10052F00011E14011D1E01141401121E01110001E0
:0D053F001000011300C103C102C101C10081
:10040600758911758D3C758BB0758C3C758AB07588
:10041600C90175C83075CDFF75CCDC75CBFF75CAC3
:10042600DC759850E4F587D2CAD2ACD2AFD2A9D245
:10043600ABD28CC28ED2A8D2AA12045375A0C3E541
:0D0446001E2405F51D1202D012021A80F8C6
:0C059600C28CE4F5A0D28EF51EF51D22EB
:10056600C28CE4F5A0D2A3D2A6C28EF51EF51D223A
:10048A00D28CE4F51385121D85141EC28E20030D2D
:10049A00F5A0D2A1D2A6E51E2405F51D22E4F5A0F9
:0B04AA00D2A4D2A3E51D2405F51E22FC
:10057600C28CC28EE4F5A0D2A1D2A6F51EF51D222C
:10058600C28CC28EE4F5A0D2A4D2A3F51DF51E221C
:1002D00020950F12021A20950912059612021A3063
:1002E00095FA20940F12021A209409120566120240
:1002F0001A3094FA20B40F12021A20B40912048A98
:1003000012021A30B4FA20960F12021A209609121D
:10031000057612021A3096FA20970F12021A2097C9
:100320000912058612021A3097FA20B51712021A1E
:1003300020B51120020405118002C2B330B5FD12B0
:10034000021AD2B320B61712021A20B611300204D4
:1003500005108002C2B330B6FD12021AD2B320B724
:100360001812021A20B7120513E513C394034003B1
:0A03700075130230B7FD12021A22C5
:10021A00E5137022E51D75F00A84F516E51D75F0E3
:10022A000A8485F017E51E75F00A84F518E51E752F
:10023A00F00A8485F015E513B40122E51275F00A77
:10024A0084F516E51275F00A8485F017E51475F041
:10025A000A84F518E51475F00A8485F015E513B4D7
:10026A000222E51075F00A84F516E51075F00A8485
:10027A0085F017E51175F00A84F518E51175F00A8D
:10028A008485F0157590FFE4F5807590FEE51612E9
:10029A0004B57590FFE4F5807590FDE5171204B575
:1002AA007590FFE4F5807590FBE5181204B575901A
:1002BA00FFE4F5807590F7E5159004FE93F5807FCD
:0602CA00017E000204BFEA
:03000B00020026CA
:10002600C0E0C0D075D008758C3C758AB0D28C05FE
:1000360019E519640A7026E51DD39405500C2002B3
:1000460009300106C2A1C2A2C2B3E51ED39405506F
:100056000C300209300106C2A4C2A5C2B3E5196478
:1000660014600302013AF519151E151DE51DD394FA
:1000760005500C200209300106C2A1D2A2D2B3E576
:100086001ED39405500C300209300106C2A4D2A535
:10009600D2B3E51E700AE51DB40505751E05D2012D
:1000A600E51D700AE51EB40505751D05D201200281
:1000B60041E51D703DD2B3F5A0D2A4D2A3B202C2CF
:1000C60001E512C313FFE510D39F40067405251200
:1000D600F512E510700674FB2512F512E512D3949D
:1000E6000F500375120F85121DE5122405F51E75B6
:1000F600100030023FE51E703BF5A0D2A1D2A6B299
:1001060002C201E514C313FFE511D39F400674052F
:100116002514F514E511700674FB2514F514E51481
:10012600D3940F500375140F85141EE5142405F59A
:090136001D751100D0D0D0E0329B
:03001B00020509D2
:10050900C0E0C0D0758D3C758BB0051AE51AB40AE8
:1005190004C2A5C2A2E51AB41407751A00D2A5D25D
:06052900A2D0D0D0E032A8
:03000300020006F2
:0100060032C7
:03001300020007E1
:0100070032C6
:0300230002013F98
:10013F00C0E0C0F0C083C082C0D075D000C000C086
:0D014F0001C002C003C004C005C006C00707
:10015C00C2AF30987CC298859921E521B431111237
:10016C00059612021A753AFF753B04753CDF8061E7
:10017C00E521B4321112056612021A753AFF753B6D
:10018C0004753CE4804BE521B4331112048A12024D
:10019C001A753AFF753B04753CE98035E521B4349A
:1001AC001112057612021A753AFF753B04753CEE76
:1001BC00801FE521B4351112058612021A753AFF1B
:1001CC00753B04753CF38009753AFF753B04753C2F
:1001DC00F8E4FFEF75F003A42422F8860308E6FA8E
:1001EC0008E6F912054DF5993099FDC2990FBF0833
:0301FC00E2D2AF9D
:1001FF00D007D006D005D004D003D002D001D00054
:0B020F00D0D0D082D083D0F0D0E032FD
:10045300E4F51BF51C7580407590FE1204BB759086
:10046300FD1204BB7590FB1204BB7590F71204BB1D
:100473007590FF051CE51C7002051BC39432E51B38
:070483006480948040CF2249
:0A04B5009004FE93F5807F017E00A5
:1004BF00E4FDFCC3ED9FEC9E5015E4FBFA0BBB0073
:0F04CF00010AEB647C4A70F50DBD00010C80E45E
:0104DE0022FB
:10038600020406E493A3F8E493A34003F68001F283
:1003960008DFF48029E493A3F85407240CC8C33378
:1003A600C4540F4420C8834004F456800146F6DF47
:1003B600E4800B010204081020408090052FE47EA3
:1003C600019360BCA3FF543F30E509541FFEE4933C
:1003D600A360010ECF54C025E060A840B8E493A303
:1003E600FAE493A3F8E493A3C8C582C8CAC583CA2E
:1003F600F0A3C8C582C8CAC583CADFE9DEE780BEE6
:01054C0000AE
:10054D00BB010689828A83E0225002E722BBFE02AC
:09055D00E32289828A83E49322DF
:00000001FF
